{
  "_format": "hh-sol-artifact-1",
  "contractName": "ProposalDAO",
  "sourceName": "contracts/ProposalDAO.sol",
  "abi": [
    {
      "inputs": [
        {
          "internalType": "address",
          "name": "_tokenAddress",
          "type": "address"
        }
      ],
      "stateMutability": "nonpayable",
      "type": "constructor"
    },
    {
      "anonymous": false,
      "inputs": [
        {
          "indexed": true,
          "internalType": "uint256",
          "name": "id",
          "type": "uint256"
        },
        {
          "indexed": false,
          "internalType": "string",
          "name": "title",
          "type": "string"
        },
        {
          "indexed": false,
          "internalType": "uint256",
          "name": "deadline",
          "type": "uint256"
        }
      ],
      "name": "ProposalCreated",
      "type": "event"
    },
    {
      "anonymous": false,
      "inputs": [
        {
          "indexed": true,
          "internalType": "uint256",
          "name": "id",
          "type": "uint256"
        }
      ],
      "name": "ProposalExecuted",
      "type": "event"
    },
    {
      "anonymous": false,
      "inputs": [
        {
          "indexed": true,
          "internalType": "uint256",
          "name": "proposalId",
          "type": "uint256"
        },
        {
          "indexed": false,
          "internalType": "address",
          "name": "voter",
          "type": "address"
        },
        {
          "indexed": false,
          "internalType": "bool",
          "name": "support",
          "type": "bool"
        }
      ],
      "name": "VoteCast",
      "type": "event"
    },
    {
      "inputs": [
        {
          "internalType": "string",
          "name": "_title",
          "type": "string"
        },
        {
          "internalType": "string",
          "name": "_description",
          "type": "string"
        }
      ],
      "name": "createProposal",
      "outputs": [],
      "stateMutability": "nonpayable",
      "type": "function"
    },
    {
      "inputs": [
        {
          "internalType": "uint256",
          "name": "_proposalId",
          "type": "uint256"
        }
      ],
      "name": "executeProposal",
      "outputs": [],
      "stateMutability": "nonpayable",
      "type": "function"
    },
    {
      "inputs": [],
      "name": "governanceToken",
      "outputs": [
        {
          "internalType": "contract IERC20",
          "name": "",
          "type": "address"
        }
      ],
      "stateMutability": "view",
      "type": "function"
    },
    {
      "inputs": [
        {
          "internalType": "uint256",
          "name": "",
          "type": "uint256"
        },
        {
          "internalType": "address",
          "name": "",
          "type": "address"
        }
      ],
      "name": "hasVoted",
      "outputs": [
        {
          "internalType": "bool",
          "name": "",
          "type": "bool"
        }
      ],
      "stateMutability": "view",
      "type": "function"
    },
    {
      "inputs": [],
      "name": "proposalCount",
      "outputs": [
        {
          "internalType": "uint256",
          "name": "",
          "type": "uint256"
        }
      ],
      "stateMutability": "view",
      "type": "function"
    },
    {
      "inputs": [
        {
          "internalType": "uint256",
          "name": "",
          "type": "uint256"
        }
      ],
      "name": "proposals",
      "outputs": [
        {
          "internalType": "uint256",
          "name": "id",
          "type": "uint256"
        },
        {
          "internalType": "string",
          "name": "title",
          "type": "string"
        },
        {
          "internalType": "string",
          "name": "description",
          "type": "string"
        },
        {
          "internalType": "uint256",
          "name": "votesFor",
          "type": "uint256"
        },
        {
          "internalType": "uint256",
          "name": "votesAgainst",
          "type": "uint256"
        },
        {
          "internalType": "uint256",
          "name": "deadline",
          "type": "uint256"
        },
        {
          "internalType": "bool",
          "name": "executed",
          "type": "bool"
        }
      ],
      "stateMutability": "view",
      "type": "function"
    },
    {
      "inputs": [
        {
          "internalType": "uint256",
          "name": "_proposalId",
          "type": "uint256"
        },
        {
          "internalType": "bool",
          "name": "support",
          "type": "bool"
        }
      ],
      "name": "vote",
      "outputs": [],
      "stateMutability": "nonpayable",
      "type": "function"
    }
  ],
  "bytecode": "0x608060405234801561001057600080fd5b506040516115d03803806115d0833981810160405281019061003291906100db565b806000806101000a81548173ffffffffffffffffffffffffffffffffffffffff021916908373ffffffffffffffffffffffffffffffffffffffff16021790555050610108565b600080fd5b600073ffffffffffffffffffffffffffffffffffffffff82169050919050565b60006100a88261007d565b9050919050565b6100b88161009d565b81146100c357600080fd5b50565b6000815190506100d5816100af565b92915050565b6000602082840312156100f1576100f0610078565b5b60006100ff848285016100c6565b91505092915050565b6114b9806101176000396000f3fe608060405234801561001057600080fd5b506004361061007d5760003560e01c806365e481e21161005b57806365e481e214610104578063c9d27afe14610120578063da35c6641461013c578063f96dae0a1461015a5761007d565b8063013cf08b146100825780630d61b519146100b857806343859632146100d4575b600080fd5b61009c60048036038101906100979190610946565b610178565b6040516100af9796959493929190610a2d565b60405180910390f35b6100d260048036038101906100cd9190610946565b6102d7565b005b6100ee60048036038101906100e99190610b08565b61041f565b6040516100fb9190610b48565b60405180910390f35b61011e60048036038101906101199190610bc8565b61044e565b005b61013a60048036038101906101359190610c75565b610614565b005b6101446108dc565b6040516101519190610cb5565b60405180910390f35b6101626108e2565b60405161016f9190610d2f565b60405180910390f35b60026020528060005260406000206000915090508060000154908060010180546101a190610d79565b80601f01602080910402602001604051908101604052809291908181526020018280546101cd90610d79565b801561021a5780601f106101ef5761010080835404028352916020019161021a565b820191906000526020600020905b8154815290600101906020018083116101fd57829003601f168201915b50505050509080600201805461022f90610d79565b80601f016020809104026020016040519081016040528092919081815260200182805461025b90610d79565b80156102a85780601f1061027d576101008083540402835291602001916102a8565b820191906000526020600020905b81548152906001019060200180831161028b57829003601f168201915b5050505050908060030154908060040154908060050154908060060160009054906101000a900460ff16905087565b60006002600083815260200190815260200160002090508060050154421015610335576040517f08c379a000000000000000000000000000000000000000000000000000000000815260040161032c90610df6565b60405180910390fd5b8060060160009054906101000a900460ff1615610387576040517f08c379a000000000000000000000000000000000000000000000000000000000815260040161037e90610e62565b60405180910390fd5b80600401548160030154116103d1576040517f08c379a00000000000000000000000000000000000000000000000000000000081526004016103c890610ece565b60405180910390fd5b60018160060160006101000a81548160ff021916908315150217905550817f712ae1383f79ac853f8d882153778e0260ef8f03b504e2866e0593e04d2b291f60405160405180910390a25050565b60036020528160005260406000206020528060005260406000206000915091509054906101000a900460ff1681565b6001600081548092919061046190610f1d565b91905055506040518060e00160405280600154815260200185858080601f016020809104026020016040519081016040528093929190818152602001838380828437600081840152601f19601f82011690508083019250505050505050815260200183838080601f016020809104026020016040519081016040528093929190818152602001838380828437600081840152601f19601f8201169050808301925050505050505081526020016000815260200160008152602001620151804261052a9190610f65565b81526020016000151581525060026000600154815260200190815260200160002060008201518160000155602082015181600101908161056a919061116a565b506040820151816002019081610580919061116a565b50606082015181600301556080820151816004015560a0820151816005015560c08201518160060160006101000a81548160ff0219169083151502179055509050506001547ff5dc0da9afa6d080780a49fd8c680f03d2ddf3c067cd6d0c85360c096644d2d3858562015180426105f79190610f65565b60405161060693929190611278565b60405180910390a250505050565b600060026000848152602001908152602001600020905080600501544210610671576040517f08c379a0000000000000000000000000000000000000000000000000000000008152600401610668906112f6565b60405180910390fd5b6003600084815260200190815260200160002060003373ffffffffffffffffffffffffffffffffffffffff1673ffffffffffffffffffffffffffffffffffffffff16815260200190815260200160002060009054906101000a900460ff161561070f576040517f08c379a000000000000000000000000000000000000000000000000000000000815260040161070690611362565b60405180910390fd5b60008060009054906101000a900473ffffffffffffffffffffffffffffffffffffffff1673ffffffffffffffffffffffffffffffffffffffff166370a08231336040518263ffffffff1660e01b815260040161076b9190611391565b602060405180830381865afa158015610788573d6000803e3d6000fd5b505050506040513d601f19601f820116820180604052508101906107ac91906113c1565b9050600081116107f1576040517f08c379a00000000000000000000000000000000000000000000000000000000081526004016107e89061143a565b60405180910390fd5b8215610817578082600301600082825461080b9190610f65565b92505081905550610833565b8082600401600082825461082b9190610f65565b925050819055505b60016003600086815260200190815260200160002060003373ffffffffffffffffffffffffffffffffffffffff1673ffffffffffffffffffffffffffffffffffffffff16815260200190815260200160002060006101000a81548160ff021916908315150217905550837fe71fcdac32df1877c1700e7bda2a03157e20993363a28fc35ac495cefc76e4d433856040516108ce92919061145a565b60405180910390a250505050565b60015481565b60008054906101000a900473ffffffffffffffffffffffffffffffffffffffff1681565b600080fd5b600080fd5b6000819050919050565b61092381610910565b811461092e57600080fd5b50565b6000813590506109408161091a565b92915050565b60006020828403121561095c5761095b610906565b5b600061096a84828501610931565b91505092915050565b61097c81610910565b82525050565b600081519050919050565b600082825260208201905092915050565b60005b838110156109bc5780820151818401526020810190506109a1565b60008484015250505050565b6000601f19601f8301169050919050565b60006109e482610982565b6109ee818561098d565b93506109fe81856020860161099e565b610a07816109c8565b840191505092915050565b60008115159050919050565b610a2781610a12565b82525050565b600060e082019050610a42600083018a610973565b8181036020830152610a5481896109d9565b90508181036040830152610a6881886109d9565b9050610a776060830187610973565b610a846080830186610973565b610a9160a0830185610973565b610a9e60c0830184610a1e565b98975050505050505050565b600073ffffffffffffffffffffffffffffffffffffffff82169050919050565b6000610ad582610aaa565b9050919050565b610ae581610aca565b8114610af057600080fd5b50565b600081359050610b0281610adc565b92915050565b60008060408385031215610b1f57610b1e610906565b5b6000610b2d85828601610931565b9250506020610b3e85828601610af3565b9150509250929050565b6000602082019050610b5d6000830184610a1e565b92915050565b600080fd5b600080fd5b600080fd5b60008083601f840112610b8857610b87610b63565b5b8235905067ffffffffffffffff811115610ba557610ba4610b68565b5b602083019150836001820283011115610bc157610bc0610b6d565b5b9250929050565b60008060008060408587031215610be257610be1610906565b5b600085013567ffffffffffffffff811115610c0057610bff61090b565b5b610c0c87828801610b72565b9450945050602085013567ffffffffffffffff811115610c2f57610c2e61090b565b5b610c3b87828801610b72565b925092505092959194509250565b610c5281610a12565b8114610c5d57600080fd5b50565b600081359050610c6f81610c49565b92915050565b60008060408385031215610c8c57610c8b610906565b5b6000610c9a85828601610931565b9250506020610cab85828601610c60565b9150509250929050565b6000602082019050610cca6000830184610973565b92915050565b6000819050919050565b6000610cf5610cf0610ceb84610aaa565b610cd0565b610aaa565b9050919050565b6000610d0782610cda565b9050919050565b6000610d1982610cfc565b9050919050565b610d2981610d0e565b82525050565b6000602082019050610d446000830184610d20565b92915050565b7f4e487b7100000000000000000000000000000000000000000000000000000000600052602260045260246000fd5b60006002820490506001821680610d9157607f821691505b602082108103610da457610da3610d4a565b5b50919050565b7f566f74696e67207374696c6c2061637469766500000000000000000000000000600082015250565b6000610de060138361098d565b9150610deb82610daa565b602082019050919050565b60006020820190508181036000830152610e0f81610dd3565b9050919050565b7f416c726561647920657865637574656400000000000000000000000000000000600082015250565b6000610e4c60108361098d565b9150610e5782610e16565b602082019050919050565b60006020820190508181036000830152610e7b81610e3f565b9050919050565b7f4e6f7420617070726f7665640000000000000000000000000000000000000000600082015250565b6000610eb8600c8361098d565b9150610ec382610e82565b602082019050919050565b60006020820190508181036000830152610ee781610eab565b9050919050565b7f4e487b7100000000000000000000000000000000000000000000000000000000600052601160045260246000fd5b6000610f2882610910565b91507fffffffffffffffffffffffffffffffffffffffffffffffffffffffffffffffff8203610f5a57610f59610eee565b5b600182019050919050565b6000610f7082610910565b9150610f7b83610910565b9250828201905080821115610f9357610f92610eee565b5b92915050565b7f4e487b7100000000000000000000000000000000000000000000000000000000600052604160045260246000fd5b60008190508160005260206000209050919050565b60006020601f8301049050919050565b600082821b905092915050565b60006008830261102a7fffffffffffffffffffffffffffffffffffffffffffffffffffffffffffffffff82610fed565b6110348683610fed565b95508019841693508086168417925050509392505050565b600061106761106261105d84610910565b610cd0565b610910565b9050919050565b6000819050919050565b6110818361104c565b61109561108d8261106e565b848454610ffa565b825550505050565b600090565b6110aa61109d565b6110b5818484611078565b505050565b5b818110156110d9576110ce6000826110a2565b6001810190506110bb565b5050565b601f82111561111e576110ef81610fc8565b6110f884610fdd565b81016020851015611107578190505b61111b61111385610fdd565b8301826110ba565b50505b505050565b600082821c905092915050565b600061114160001984600802611123565b1980831691505092915050565b600061115a8383611130565b9150826002028217905092915050565b61117382610982565b67ffffffffffffffff81111561118c5761118b610f99565b5b6111968254610d79565b6111a18282856110dd565b600060209050601f8311600181146111d457600084156111c2578287015190505b6111cc858261114e565b865550611234565b601f1984166111e286610fc8565b60005b8281101561120a578489015182556001820191506020850194506020810190506111e5565b868310156112275784890151611223601f891682611130565b8355505b6001600288020188555050505b505050505050565b82818337600083830152505050565b6000611257838561098d565b935061126483858461123c565b61126d836109c8565b840190509392505050565b6000604082019050818103600083015261129381858761124b565b90506112a26020830184610973565b949350505050565b7f566f74696e6720706572696f6420656e64656400000000000000000000000000600082015250565b60006112e060138361098d565b91506112eb826112aa565b602082019050919050565b6000602082019050818103600083015261130f816112d3565b9050919050565b7f416c726561647920766f74656400000000000000000000000000000000000000600082015250565b600061134c600d8361098d565b915061135782611316565b602082019050919050565b6000602082019050818103600083015261137b8161133f565b9050919050565b61138b81610aca565b82525050565b60006020820190506113a66000830184611382565b92915050565b6000815190506113bb8161091a565b92915050565b6000602082840312156113d7576113d6610906565b5b60006113e5848285016113ac565b91505092915050565b7f4e6f20766f74696e6720706f7765720000000000000000000000000000000000600082015250565b6000611424600f8361098d565b915061142f826113ee565b602082019050919050565b6000602082019050818103600083015261145381611417565b9050919050565b600060408201905061146f6000830185611382565b61147c6020830184610a1e565b939250505056fea2646970667358221220ce6454f4def280993d46582fa44cb197055024dafcf3502dee1404f20337420764736f6c634300081c0033",
  "linkReferences": {},
  "deployedLinkReferences": {}
}